{
  "_format": "hh-sol-artifact-1",
  "contractName": "URLRegistry",
  "sourceName": "contracts/URLRegistry.sol",
  "abi": [
    {
      "inputs": [
        {
          "internalType": "string",
          "name": "shortCode",
          "type": "string"
        }
      ],
      "name": "registerURL",
      "outputs": [],
      "stateMutability": "nonpayable",
      "type": "function"
    },
    {
      "inputs": [
        {
          "internalType": "string",
          "name": "",
          "type": "string"
        }
      ],
      "name": "urlOwners",
      "outputs": [
        {
          "internalType": "address",
          "name": "",
          "type": "address"
        }
      ],
      "stateMutability": "view",
      "type": "function"
    },
    {
      "inputs": [
        {
          "internalType": "address",
          "name": "",
          "type": "address"
        },
        {
          "internalType": "uint256",
          "name": "",
          "type": "uint256"
        }
      ],
      "name": "userUrls",
      "outputs": [
        {
          "internalType": "string",
          "name": "",
          "type": "string"
        }
      ],
      "stateMutability": "view",
      "type": "function"
    }
  ],
  "bytecode": "0x6080604052348015600f57600080fd5b5061093f8061001f6000396000f3fe608060405234801561001057600080fd5b50600436106100415760003560e01c80637c84d9e914610046578063aaf86a7a14610076578063cca6d24314610092575b600080fd5b610060600480360381019061005b919061033e565b6100c2565b60405161006d919061040e565b60405180910390f35b610090600480360381019061008b9190610565565b61017b565b005b6100ac60048036038101906100a79190610565565b61024d565b6040516100b991906105bd565b60405180910390f35b600160205281600052604060002081815481106100de57600080fd5b906000526020600020016000915091505080546100fa90610607565b80601f016020809104026020016040519081016040528092919081815260200182805461012690610607565b80156101735780601f1061014857610100808354040283529160200191610173565b820191906000526020600020905b81548152906001019060200180831161015657829003601f168201915b505050505081565b3360008260405161018c9190610674565b908152602001604051809103902060006101000a81548173ffffffffffffffffffffffffffffffffffffffff021916908373ffffffffffffffffffffffffffffffffffffffff160217905550600160003373ffffffffffffffffffffffffffffffffffffffff1673ffffffffffffffffffffffffffffffffffffffff168152602001908152602001600020819080600181540180825580915050600190039060005260206000200160009091909190915090816102499190610837565b5050565b6000818051602081018201805184825260208301602085012081835280955050505050506000915054906101000a900473ffffffffffffffffffffffffffffffffffffffff1681565b6000604051905090565b600080fd5b600080fd5b600073ffffffffffffffffffffffffffffffffffffffff82169050919050565b60006102d5826102aa565b9050919050565b6102e5816102ca565b81146102f057600080fd5b50565b600081359050610302816102dc565b92915050565b6000819050919050565b61031b81610308565b811461032657600080fd5b50565b60008135905061033881610312565b92915050565b60008060408385031215610355576103546102a0565b5b6000610363858286016102f3565b925050602061037485828601610329565b9150509250929050565b600081519050919050565b600082825260208201905092915050565b60005b838110156103b857808201518184015260208101905061039d565b60008484015250505050565b6000601f19601f8301169050919050565b60006103e08261037e565b6103ea8185610389565b93506103fa81856020860161039a565b610403816103c4565b840191505092915050565b6000602082019050818103600083015261042881846103d5565b905092915050565b600080fd5b600080fd5b7f4e487b7100000000000000000000000000000000000000000000000000000000600052604160045260246000fd5b610472826103c4565b810181811067ffffffffffffffff821117156104915761049061043a565b5b80604052505050565b60006104a4610296565b90506104b08282610469565b919050565b600067ffffffffffffffff8211156104d0576104cf61043a565b5b6104d9826103c4565b9050602081019050919050565b82818337600083830152505050565b6000610508610503846104b5565b61049a565b90508281526020810184848401111561052457610523610435565b5b61052f8482856104e6565b509392505050565b600082601f83011261054c5761054b610430565b5b813561055c8482602086016104f5565b91505092915050565b60006020828403121561057b5761057a6102a0565b5b600082013567ffffffffffffffff811115610599576105986102a5565b5b6105a584828501610537565b91505092915050565b6105b7816102ca565b82525050565b60006020820190506105d260008301846105ae565b92915050565b7f4e487b7100000000000000000000000000000000000000000000000000000000600052602260045260246000fd5b6000600282049050600182168061061f57607f821691505b602082108103610632576106316105d8565b5b50919050565b600081905092915050565b600061064e8261037e565b6106588185610638565b935061066881856020860161039a565b80840191505092915050565b60006106808284610643565b915081905092915050565b60008190508160005260206000209050919050565b60006020601f8301049050919050565b600082821b905092915050565b6000600883026106ed7fffffffffffffffffffffffffffffffffffffffffffffffffffffffffffffffff826106b0565b6106f786836106b0565b95508019841693508086168417925050509392505050565b6000819050919050565b600061073461072f61072a84610308565b61070f565b610308565b9050919050565b6000819050919050565b61074e83610719565b61076261075a8261073b565b8484546106bd565b825550505050565b600090565b61077761076a565b610782818484610745565b505050565b5b818110156107a65761079b60008261076f565b600181019050610788565b5050565b601f8211156107eb576107bc8161068b565b6107c5846106a0565b810160208510156107d4578190505b6107e86107e0856106a0565b830182610787565b50505b505050565b600082821c905092915050565b600061080e600019846008026107f0565b1980831691505092915050565b600061082783836107fd565b9150826002028217905092915050565b6108408261037e565b67ffffffffffffffff8111156108595761085861043a565b5b6108638254610607565b61086e8282856107aa565b600060209050601f8311600181146108a1576000841561088f578287015190505b610899858261081b565b865550610901565b601f1984166108af8661068b565b60005b828110156108d7578489015182556001820191506020850194506020810190506108b2565b868310156108f457848901516108f0601f8916826107fd565b8355505b6001600288020188555050505b50505050505056fea26469706673582212208d9e5c4a88d2b08441a13cbcce8b45320a656bcc2b254059ab1bc53d975087fb64736f6c634300081a0033",
  "linkReferences": {},
  "deployedLinkReferences": {}
}